{
  "_format": "hh-sol-artifact-1",
  "contractName": "MultiSigFactory",
  "sourceName": "contracts/MultiSigFactory.sol",
  "abi": [
    {
      "anonymous": false,
      "inputs": [
        {
          "indexed": false,
          "internalType": "contract OriginalMultiSig",
          "name": "newContract",
          "type": "address"
        },
        {
          "indexed": false,
          "internalType": "uint256",
          "name": "timeStamp",
          "type": "uint256"
        },
        {
          "indexed": false,
          "internalType": "uint256",
          "name": "_length",
          "type": "uint256"
        }
      ],
      "name": "MultiSigWalletCreate",
      "type": "event"
    },
    {
      "inputs": [
        {
          "internalType": "uint8",
          "name": "_quorum",
          "type": "uint8"
        },
        {
          "internalType": "address[]",
          "name": "_signers",
          "type": "address[]"
        }
      ],
      "name": "createMultiSig",
      "outputs": [],
      "stateMutability": "nonpayable",
      "type": "function"
    },
    {
      "inputs": [],
      "name": "getClonedContract",
      "outputs": [
        {
          "internalType": "uint256",
          "name": "",
          "type": "uint256"
        }
      ],
      "stateMutability": "view",
      "type": "function"
    },
    {
      "inputs": [
        {
          "internalType": "uint256",
          "name": "",
          "type": "uint256"
        }
      ],
      "name": "multiSigClones",
      "outputs": [
        {
          "internalType": "contract OriginalMultiSig",
          "name": "",
          "type": "address"
        }
      ],
      "stateMutability": "view",
      "type": "function"
    }
  ],
  "bytecode": "0x608060405234801561001057600080fd5b50612c67806100206000396000f3fe60806040523480156200001157600080fd5b5060043610620000465760003560e01c8063107d4281146200004b5780635356640a14620000815780635d78925714620000a3575b600080fd5b6200006960048036038101906200006391906200025b565b620000c3565b60405162000078919062000318565b60405180910390f35b6200008b62000103565b6040516200009a919062000346565b60405180910390f35b620000c16004803603810190620000bb91906200055b565b6200010f565b005b60008181548110620000d457600080fd5b906000526020600020016000915054906101000a900473ffffffffffffffffffffffffffffffffffffffff1681565b60008080549050905090565b600082826040516200012190620001fe565b6200012e929190620006a0565b604051809103906000f0801580156200014b573d6000803e3d6000fd5b5090506000819080600181540180825580915050600190039060005260206000200160009091909190916101000a81548173ffffffffffffffffffffffffffffffffffffffff021916908373ffffffffffffffffffffffffffffffffffffffff16021790555060004290507fe9aa238a86e1a40db558b7c86ebe304d7ab43f651b5aa23d1724ca4064f65f558282600080549050604051620001f093929190620006d4565b60405180910390a150505050565b612520806200071283390190565b6000604051905090565b600080fd5b600080fd5b6000819050919050565b620002358162000220565b81146200024157600080fd5b50565b60008135905062000255816200022a565b92915050565b60006020828403121562000274576200027362000216565b5b6000620002848482850162000244565b91505092915050565b600073ffffffffffffffffffffffffffffffffffffffff82169050919050565b6000819050919050565b6000620002d8620002d2620002cc846200028d565b620002ad565b6200028d565b9050919050565b6000620002ec82620002b7565b9050919050565b60006200030082620002df565b9050919050565b6200031281620002f3565b82525050565b60006020820190506200032f600083018462000307565b92915050565b620003408162000220565b82525050565b60006020820190506200035d600083018462000335565b92915050565b600060ff82169050919050565b6200037b8162000363565b81146200038757600080fd5b50565b6000813590506200039b8162000370565b92915050565b600080fd5b6000601f19601f8301169050919050565b7f4e487b7100000000000000000000000000000000000000000000000000000000600052604160045260246000fd5b620003f182620003a6565b810181811067ffffffffffffffff82111715620004135762000412620003b7565b5b80604052505050565b6000620004286200020c565b9050620004368282620003e6565b919050565b600067ffffffffffffffff821115620004595762000458620003b7565b5b602082029050602081019050919050565b600080fd5b60006200047c826200028d565b9050919050565b6200048e816200046f565b81146200049a57600080fd5b50565b600081359050620004ae8162000483565b92915050565b6000620004cb620004c5846200043b565b6200041c565b90508083825260208201905060208402830185811115620004f157620004f06200046a565b5b835b818110156200051e57806200050988826200049d565b845260208401935050602081019050620004f3565b5050509392505050565b600082601f83011262000540576200053f620003a1565b5b813562000552848260208601620004b4565b91505092915050565b6000806040838503121562000575576200057462000216565b5b600062000585858286016200038a565b925050602083013567ffffffffffffffff811115620005a957620005a86200021b565b5b620005b78582860162000528565b9150509250929050565b620005cc8162000363565b82525050565b600081519050919050565b600082825260208201905092915050565b6000819050602082019050919050565b62000609816200046f565b82525050565b60006200061d8383620005fe565b60208301905092915050565b6000602082019050919050565b60006200064382620005d2565b6200064f8185620005dd565b93506200065c83620005ee565b8060005b83811015620006935781516200067788826200060f565b9750620006848362000629565b92505060018101905062000660565b5085935050505092915050565b6000604082019050620006b76000830185620005c1565b8181036020830152620006cb818462000636565b90509392505050565b6000606082019050620006eb600083018662000307565b620006fa602083018562000335565b62000709604083018462000335565b94935050505056fe60806040523480156200001157600080fd5b50604051620025203803806200252083398181016040528101906200003791906200063d565b60018151116200007e576040517f08c379a0000000000000000000000000000000000000000000000000000000008152600401620000759062000704565b60405180910390fd5b60018260ff1611620000c7576040517f08c379a0000000000000000000000000000000000000000000000000000000008152600401620000be9062000776565b60405180910390fd5b60005b81518110156200029357600073ffffffffffffffffffffffffffffffffffffffff1682828151811062000102576200010162000798565b5b602002602001015173ffffffffffffffffffffffffffffffffffffffff160362000163576040517f08c379a00000000000000000000000000000000000000000000000000000000081526004016200015a9062000817565b60405180910390fd5b600260008383815181106200017d576200017c62000798565b5b602002602001015173ffffffffffffffffffffffffffffffffffffffff1673ffffffffffffffffffffffffffffffffffffffff16815260200190815260200160002060009054906101000a900460ff161562000210576040517f08c379a0000000000000000000000000000000000000000000000000000000008152600401620002079062000889565b60405180910390fd5b6001600260008484815181106200022c576200022b62000798565b5b602002602001015173ffffffffffffffffffffffffffffffffffffffff1673ffffffffffffffffffffffffffffffffffffffff16815260200190815260200160002060006101000a81548160ff0219169083151502179055508080600101915050620000ca565b508051600060016101000a81548160ff021916908360ff160217905550600260003373ffffffffffffffffffffffffffffffffffffffff1673ffffffffffffffffffffffffffffffffffffffff16815260200190815260200160002060009054906101000a900460ff1662000394576001600260003373ffffffffffffffffffffffffffffffffffffffff1673ffffffffffffffffffffffffffffffffffffffff16815260200190815260200160002060006101000a81548160ff0219169083151502179055506001600060018282829054906101000a900460ff166200037b9190620008da565b92506101000a81548160ff021916908360ff1602179055505b600060019054906101000a900460ff1660ff168260ff161115620003ef576040517f08c379a0000000000000000000000000000000000000000000000000000000008152600401620003e6906200098c565b60405180910390fd5b816000806101000a81548160ff021916908360ff1602179055505050620009ae565b6000604051905090565b600080fd5b600080fd5b600060ff82169050919050565b6200043d8162000425565b81146200044957600080fd5b50565b6000815190506200045d8162000432565b92915050565b600080fd5b6000601f19601f8301169050919050565b7f4e487b7100000000000000000000000000000000000000000000000000000000600052604160045260246000fd5b620004b38262000468565b810181811067ffffffffffffffff82111715620004d557620004d462000479565b5b80604052505050565b6000620004ea62000411565b9050620004f88282620004a8565b919050565b600067ffffffffffffffff8211156200051b576200051a62000479565b5b602082029050602081019050919050565b600080fd5b600073ffffffffffffffffffffffffffffffffffffffff82169050919050565b60006200055e8262000531565b9050919050565b620005708162000551565b81146200057c57600080fd5b50565b600081519050620005908162000565565b92915050565b6000620005ad620005a784620004fd565b620004de565b90508083825260208201905060208402830185811115620005d357620005d26200052c565b5b835b81811015620006005780620005eb88826200057f565b845260208401935050602081019050620005d5565b5050509392505050565b600082601f83011262000622576200062162000463565b5b81516200063484826020860162000596565b91505092915050565b600080604083850312156200065757620006566200041b565b5b600062000667858286016200044c565b925050602083015167ffffffffffffffff8111156200068b576200068a62000420565b5b62000699858286016200060a565b9150509250929050565b600082825260208201905092915050565b7f6665772076616c6964207369676e657273000000000000000000000000000000600082015250565b6000620006ec601183620006a3565b9150620006f982620006b4565b602082019050919050565b600060208201905081810360008301526200071f81620006dd565b9050919050565b7f71756f72756d20697320746f6f20736d616c6c00000000000000000000000000600082015250565b60006200075e601383620006a3565b91506200076b8262000726565b602082019050919050565b6000602082019050818103600083015262000791816200074f565b9050919050565b7f4e487b7100000000000000000000000000000000000000000000000000000000600052603260045260246000fd5b7f7a65726f2061646472657373206e6f7420616c6c6f7765640000000000000000600082015250565b6000620007ff601883620006a3565b91506200080c82620007c7565b602082019050919050565b600060208201905081810360008301526200083281620007f0565b9050919050565b7f7369676e657220616c7265616479206578697374000000000000000000000000600082015250565b600062000871601483620006a3565b91506200087e8262000839565b602082019050919050565b60006020820190508181036000830152620008a48162000862565b9050919050565b7f4e487b7100000000000000000000000000000000000000000000000000000000600052601160045260246000fd5b6000620008e78262000425565b9150620008f48362000425565b9250828201905060ff81111562000910576200090f620008ab565b5b92915050565b7f71756f72756d2067726561746572207468616e2076616c6964207369676e657260008201527f7300000000000000000000000000000000000000000000000000000000000000602082015250565b600062000974602183620006a3565b9150620009818262000916565b604082019050919050565b60006020820190508181036000830152620009a78162000965565b9050919050565b611b6280620009be6000396000f3fe608060405234801561001057600080fd5b50600436106100885760003560e01c806335680dc21161005b57806335680dc21461011a5780633c54068714610136578063ccb570e314610154578063d5f505821461017057610088565b80631703a0181461008d57806317eff51b146100ab5780632f430e17146100c957806334f59e39146100e5575b600080fd5b6100956101a0565b6040516100a29190611219565b60405180910390f35b6100b36101b1565b6040516100c09190611219565b60405180910390f35b6100e360048036038101906100de9190611265565b6101c4565b005b6100ff60048036038101906100fa91906112c8565b61096f565b60405161011196959493929190611360565b60405180910390f35b610134600480360381019061012f91906112c8565b6109d8565b005b61013e610ce8565b60405161014b91906113c1565b60405180910390f35b61016e60048036038101906101699190611408565b610cee565b005b61018a6004803603810190610185919061145b565b6111dd565b6040516101979190611488565b60405180910390f35b60008054906101000a900460ff1681565b600060019054906101000a900460ff1681565b6000600360008360ff1681526020019081526020016000206005015490506000600460008460ff16815260200190815260200160002060040154905060008360ff1603610246576040517f08c379a000000000000000000000000000000000000000000000000000000000815260040161023d90611500565b60405180910390fd5b600260003373ffffffffffffffffffffffffffffffffffffffff1673ffffffffffffffffffffffffffffffffffffffff16815260200190815260200160002060009054906101000a900460ff166102d2576040517f08c379a00000000000000000000000000000000000000000000000000000000081526004016102c99061156c565b60405180910390fd5b600560003373ffffffffffffffffffffffffffffffffffffffff1673ffffffffffffffffffffffffffffffffffffffff16815260200190815260200160002060008460ff16815260200190815260200160002060009054906101000a900460ff1615610373576040517f08c379a000000000000000000000000000000000000000000000000000000000815260040161036a906115d8565b60405180910390fd5b6000821115610719576000600360008560ff168152602001908152602001600020905080600101548160060160009054906101000a900473ffffffffffffffffffffffffffffffffffffffff1673ffffffffffffffffffffffffffffffffffffffff166370a08231306040518263ffffffff1660e01b81526004016103f891906115f8565b602060405180830381865afa158015610415573d6000803e3d6000fd5b505050506040513d601f19601f820116820180604052508101906104399190611628565b101561047a576040517f08c379a0000000000000000000000000000000000000000000000000000000008152600401610471906116a1565b60405180910390fd5b8060030160149054906101000a900460ff16156104cc576040517f08c379a00000000000000000000000000000000000000000000000000000000081526004016104c39061170d565b60405180910390fd5b60008054906101000a900460ff1660ff16816005015410610522576040517f08c379a000000000000000000000000000000000000000000000000000000000815260040161051990611779565b60405180910390fd5b6001600560003373ffffffffffffffffffffffffffffffffffffffff1673ffffffffffffffffffffffffffffffffffffffff16815260200190815260200160002060008660ff16815260200190815260200160002060006101000a81548160ff02191690831515021790555060018160050160008282546105a391906117c8565b9250508190555080600701339080600181540180825580915050600190039060005260206000200160009091909190916101000a81548173ffffffffffffffffffffffffffffffffffffffff021916908373ffffffffffffffffffffffffffffffffffffffff16021790555060008054906101000a900460ff1660ff168160050154036107135760018160030160146101000a81548160ff0219169083151502179055508060060160009054906101000a900473ffffffffffffffffffffffffffffffffffffffff1673ffffffffffffffffffffffffffffffffffffffff1663a9059cbb8260030160009054906101000a900473ffffffffffffffffffffffffffffffffffffffff1683600101546040518363ffffffff1660e01b81526004016106ce9291906117fc565b6020604051808303816000875af11580156106ed573d6000803e3d6000fd5b505050506040513d601f19601f820116820180604052508101906107119190611851565b505b5061096a565b600081111561092e576000600460008560ff16815260200190815260200160002090508060020160009054906101000a900460ff161561078e576040517f08c379a00000000000000000000000000000000000000000000000000000000081526004016107859061170d565b60405180910390fd5b60008054906101000a900460ff1660ff168160040154106107e4576040517f08c379a00000000000000000000000000000000000000000000000000000000081526004016107db90611779565b60405180910390fd5b6001600560003373ffffffffffffffffffffffffffffffffffffffff1673ffffffffffffffffffffffffffffffffffffffff16815260200190815260200160002060008660ff16815260200190815260200160002060006101000a81548160ff021916908315150217905550600181600401600082825461086591906117c8565b9250508190555080600501339080600181540180825580915050600190039060005260206000200160009091909190916101000a81548173ffffffffffffffffffffffffffffffffffffffff021916908373ffffffffffffffffffffffffffffffffffffffff16021790555060008054906101000a900460ff1660ff168160040154036109285760018160020160006101000a81548160ff02191690831515021790555080600101546000806101000a81548160ff021916908360ff1602179055505b50610969565b6040517f08c379a0000000000000000000000000000000000000000000000000000000008152600401610960906118ca565b60405180910390fd5b5b505050565b60046020528060005260406000206000915090508060000154908060010154908060020160009054906101000a900460ff16908060020160019054906101000a900473ffffffffffffffffffffffffffffffffffffffff16908060030154908060040154905086565b600073ffffffffffffffffffffffffffffffffffffffff163373ffffffffffffffffffffffffffffffffffffffff1603610a47576040517f08c379a0000000000000000000000000000000000000000000000000000000008152600401610a3e90611936565b60405180910390fd5b600260003373ffffffffffffffffffffffffffffffffffffffff1673ffffffffffffffffffffffffffffffffffffffff16815260200190815260200160002060009054906101000a900460ff16610ad3576040517f08c379a0000000000000000000000000000000000000000000000000000000008152600401610aca906119a2565b60405180910390fd5b60018111610b16576040517f08c379a0000000000000000000000000000000000000000000000000000000008152600401610b0d90611a0e565b60405180910390fd5b600060019054906101000a900460ff1660ff16811115610b6b576040517f08c379a0000000000000000000000000000000000000000000000000000000008152600401610b6290611aa0565b60405180910390fd5b600060018054610b7b91906117c8565b90506000600460008381526020019081526020016000209050828160010181905550338160020160016101000a81548173ffffffffffffffffffffffffffffffffffffffff021916908373ffffffffffffffffffffffffffffffffffffffff1602179055504281600301819055506001816004018190555081816000018190555080600501339080600181540180825580915050600190039060005260206000200160009091909190916101000a81548173ffffffffffffffffffffffffffffffffffffffff021916908373ffffffffffffffffffffffffffffffffffffffff1602179055506001600560003373ffffffffffffffffffffffffffffffffffffffff1673ffffffffffffffffffffffffffffffffffffffff168152602001908152602001600020600084815260200190815260200160002060006101000a81548160ff0219169083151502179055506001806000828254610cdc91906117c8565b92505081905550505050565b60015481565b600073ffffffffffffffffffffffffffffffffffffffff163373ffffffffffffffffffffffffffffffffffffffff1603610d5d576040517f08c379a0000000000000000000000000000000000000000000000000000000008152600401610d5490611936565b60405180910390fd5b600260003373ffffffffffffffffffffffffffffffffffffffff1673ffffffffffffffffffffffffffffffffffffffff16815260200190815260200160002060009054906101000a900460ff16610de9576040517f08c379a0000000000000000000000000000000000000000000000000000000008152600401610de0906119a2565b60405180910390fd5b60008311610e2c576040517f08c379a0000000000000000000000000000000000000000000000000000000008152600401610e2390611b0c565b60405180910390fd5b600073ffffffffffffffffffffffffffffffffffffffff168273ffffffffffffffffffffffffffffffffffffffff1603610e9b576040517f08c379a0000000000000000000000000000000000000000000000000000000008152600401610e9290611936565b60405180910390fd5b600073ffffffffffffffffffffffffffffffffffffffff168173ffffffffffffffffffffffffffffffffffffffff1603610f0a576040517f08c379a0000000000000000000000000000000000000000000000000000000008152600401610f0190611936565b60405180910390fd5b828173ffffffffffffffffffffffffffffffffffffffff166370a08231306040518263ffffffff1660e01b8152600401610f4491906115f8565b602060405180830381865afa158015610f61573d6000803e3d6000fd5b505050506040513d601f19601f82011682018060405250810190610f859190611628565b1015610fc6576040517f08c379a0000000000000000000000000000000000000000000000000000000008152600401610fbd906116a1565b60405180910390fd5b600060018054610fd691906117c8565b90506000600360008381526020019081526020016000209050818160000181905550848160010181905550838160030160006101000a81548173ffffffffffffffffffffffffffffffffffffffff021916908373ffffffffffffffffffffffffffffffffffffffff160217905550338160020160006101000a81548173ffffffffffffffffffffffffffffffffffffffff021916908373ffffffffffffffffffffffffffffffffffffffff160217905550428160040181905550828160060160006101000a81548173ffffffffffffffffffffffffffffffffffffffff021916908373ffffffffffffffffffffffffffffffffffffffff16021790555060018160050160008282546110e891906117c8565b9250508190555080600701339080600181540180825580915050600190039060005260206000200160009091909190916101000a81548173ffffffffffffffffffffffffffffffffffffffff021916908373ffffffffffffffffffffffffffffffffffffffff1602179055506001600560003373ffffffffffffffffffffffffffffffffffffffff1673ffffffffffffffffffffffffffffffffffffffff168152602001908152602001600020600084815260200190815260200160002060006101000a81548160ff02191690831515021790555060018060008282546111cf91906117c8565b925050819055505050505050565b60026020528060005260406000206000915054906101000a900460ff1681565b600060ff82169050919050565b611213816111fd565b82525050565b600060208201905061122e600083018461120a565b92915050565b600080fd5b611242816111fd565b811461124d57600080fd5b50565b60008135905061125f81611239565b92915050565b60006020828403121561127b5761127a611234565b5b600061128984828501611250565b91505092915050565b6000819050919050565b6112a581611292565b81146112b057600080fd5b50565b6000813590506112c28161129c565b92915050565b6000602082840312156112de576112dd611234565b5b60006112ec848285016112b3565b91505092915050565b6112fe81611292565b82525050565b60008115159050919050565b61131981611304565b82525050565b600073ffffffffffffffffffffffffffffffffffffffff82169050919050565b600061134a8261131f565b9050919050565b61135a8161133f565b82525050565b600060c08201905061137560008301896112f5565b61138260208301886112f5565b61138f6040830187611310565b61139c6060830186611351565b6113a960808301856112f5565b6113b660a08301846112f5565b979650505050505050565b60006020820190506113d660008301846112f5565b92915050565b6113e58161133f565b81146113f057600080fd5b50565b600081359050611402816113dc565b92915050565b60008060006060848603121561142157611420611234565b5b600061142f868287016112b3565b9350506020611440868287016113f3565b9250506040611451868287016113f3565b9150509250925092565b60006020828403121561147157611470611234565b5b600061147f848285016113f3565b91505092915050565b600060208201905061149d6000830184611310565b92915050565b600082825260208201905092915050565b7f696e76616c696420747820696400000000000000000000000000000000000000600082015250565b60006114ea600d836114a3565b91506114f5826114b4565b602082019050919050565b60006020820190508181036000830152611519816114dd565b9050919050565b7f6e6f7420612076616c6964207369676e65720000000000000000000000000000600082015250565b60006115566012836114a3565b915061156182611520565b602082019050919050565b6000602082019050818103600083015261158581611549565b9050919050565b7f63616e2774207369676e20747769636500000000000000000000000000000000600082015250565b60006115c26010836114a3565b91506115cd8261158c565b602082019050919050565b600060208201905081810360008301526115f1816115b5565b9050919050565b600060208201905061160d6000830184611351565b92915050565b6000815190506116228161129c565b92915050565b60006020828403121561163e5761163d611234565b5b600061164c84828501611613565b91505092915050565b7f696e73756666696369656e742066756e64730000000000000000000000000000600082015250565b600061168b6012836114a3565b915061169682611655565b602082019050919050565b600060208201905081810360008301526116ba8161167e565b9050919050565b7f7472616e73616374696f6e20616c726561647920636f6d706c65746564000000600082015250565b60006116f7601d836114a3565b9150611702826116c1565b602082019050919050565b60006020820190508181036000830152611726816116ea565b9050919050565b7f617070726f76616c7320616c7265616479207265616368656400000000000000600082015250565b60006117636019836114a3565b915061176e8261172d565b602082019050919050565b6000602082019050818103600083015261179281611756565b9050919050565b7f4e487b7100000000000000000000000000000000000000000000000000000000600052601160045260246000fd5b60006117d382611292565b91506117de83611292565b92508282019050808211156117f6576117f5611799565b5b92915050565b60006040820190506118116000830185611351565b61181e60208301846112f5565b9392505050565b61182e81611304565b811461183957600080fd5b50565b60008151905061184b81611825565b92915050565b60006020828403121561186757611866611234565b5b60006118758482850161183c565b91505092915050565b7f5472616e73616374696f6e20446f6573206e6f74206578697374000000000000600082015250565b60006118b4601a836114a3565b91506118bf8261187e565b602082019050919050565b600060208201905081810360008301526118e3816118a7565b9050919050565b7f61646472657373207a65726f20666f756e640000000000000000000000000000600082015250565b60006119206012836114a3565b915061192b826118ea565b602082019050919050565b6000602082019050818103600083015261194f81611913565b9050919050565b7f696e76616c6964207369676e6572000000000000000000000000000000000000600082015250565b600061198c600e836114a3565b915061199782611956565b602082019050919050565b600060208201905081810360008301526119bb8161197f565b9050919050565b7f71756f72756d20697320746f6f20736d616c6c00000000000000000000000000600082015250565b60006119f86013836114a3565b9150611a03826119c2565b602082019050919050565b60006020820190508181036000830152611a27816119eb565b9050919050565b7f71756f72756d2067726561746572207468616e2076616c6964207369676e657260008201527f7300000000000000000000000000000000000000000000000000000000000000602082015250565b6000611a8a6021836114a3565b9150611a9582611a2e565b604082019050919050565b60006020820190508181036000830152611ab981611a7d565b9050919050565b7f63616e27742073656e64207a65726f20616d6f756e7400000000000000000000600082015250565b6000611af66016836114a3565b9150611b0182611ac0565b602082019050919050565b60006020820190508181036000830152611b2581611ae9565b905091905056fea264697066735822122021776d9851f6aa706a520ef4e917b08760bda850defc4880266f1454fcc52b4b64736f6c63430008180033a26469706673582212208844d2c524240634807151eece47f9e31ef40f407451fe7f1733c82faed553e064736f6c63430008180033",
  "linkReferences": {},
  "deployedLinkReferences": {}
}